{
  "contractName": "Token",
  "abi": [
    {
      "inputs": [],
      "payable": false,
      "stateMutability": "nonpayable",
      "type": "constructor"
    },
    {
      "anonymous": false,
      "inputs": [
        {
          "indexed": true,
          "internalType": "address",
          "name": "owner",
          "type": "address"
        },
        {
          "indexed": true,
          "internalType": "address",
          "name": "spender",
          "type": "address"
        },
        {
          "indexed": false,
          "internalType": "uint256",
          "name": "value",
          "type": "uint256"
        }
      ],
      "name": "Approval",
      "type": "event"
    },
    {
      "anonymous": false,
      "inputs": [
        {
          "indexed": true,
          "internalType": "address",
          "name": "from",
          "type": "address"
        },
        {
          "indexed": true,
          "internalType": "address",
          "name": "to",
          "type": "address"
        },
        {
          "indexed": false,
          "internalType": "uint256",
          "name": "value",
          "type": "uint256"
        }
      ],
      "name": "Transfer",
      "type": "event"
    },
    {
      "constant": true,
      "inputs": [
        {
          "internalType": "address",
          "name": "owner",
          "type": "address"
        },
        {
          "internalType": "address",
          "name": "spender",
          "type": "address"
        }
      ],
      "name": "allowance",
      "outputs": [
        {
          "internalType": "uint256",
          "name": "",
          "type": "uint256"
        }
      ],
      "payable": false,
      "stateMutability": "view",
      "type": "function"
    },
    {
      "constant": false,
      "inputs": [
        {
          "internalType": "address",
          "name": "spender",
          "type": "address"
        },
        {
          "internalType": "uint256",
          "name": "amount",
          "type": "uint256"
        }
      ],
      "name": "approve",
      "outputs": [
        {
          "internalType": "bool",
          "name": "",
          "type": "bool"
        }
      ],
      "payable": false,
      "stateMutability": "nonpayable",
      "type": "function"
    },
    {
      "constant": true,
      "inputs": [
        {
          "internalType": "address",
          "name": "account",
          "type": "address"
        }
      ],
      "name": "balanceOf",
      "outputs": [
        {
          "internalType": "uint256",
          "name": "",
          "type": "uint256"
        }
      ],
      "payable": false,
      "stateMutability": "view",
      "type": "function"
    },
    {
      "constant": true,
      "inputs": [],
      "name": "ciao",
      "outputs": [
        {
          "internalType": "bytes32",
          "name": "",
          "type": "bytes32"
        }
      ],
      "payable": false,
      "stateMutability": "view",
      "type": "function"
    },
    {
      "constant": false,
      "inputs": [
        {
          "internalType": "address",
          "name": "spender",
          "type": "address"
        },
        {
          "internalType": "uint256",
          "name": "subtractedValue",
          "type": "uint256"
        }
      ],
      "name": "decreaseAllowance",
      "outputs": [
        {
          "internalType": "bool",
          "name": "",
          "type": "bool"
        }
      ],
      "payable": false,
      "stateMutability": "nonpayable",
      "type": "function"
    },
    {
      "constant": false,
      "inputs": [
        {
          "internalType": "address",
          "name": "spender",
          "type": "address"
        },
        {
          "internalType": "uint256",
          "name": "addedValue",
          "type": "uint256"
        }
      ],
      "name": "increaseAllowance",
      "outputs": [
        {
          "internalType": "bool",
          "name": "",
          "type": "bool"
        }
      ],
      "payable": false,
      "stateMutability": "nonpayable",
      "type": "function"
    },
    {
      "constant": true,
      "inputs": [],
      "name": "owner",
      "outputs": [
        {
          "internalType": "address",
          "name": "",
          "type": "address"
        }
      ],
      "payable": false,
      "stateMutability": "view",
      "type": "function"
    },
    {
      "constant": true,
      "inputs": [],
      "name": "totalSupply",
      "outputs": [
        {
          "internalType": "uint256",
          "name": "",
          "type": "uint256"
        }
      ],
      "payable": false,
      "stateMutability": "view",
      "type": "function"
    },
    {
      "constant": false,
      "inputs": [
        {
          "internalType": "address",
          "name": "recipient",
          "type": "address"
        },
        {
          "internalType": "uint256",
          "name": "amount",
          "type": "uint256"
        }
      ],
      "name": "transfer",
      "outputs": [
        {
          "internalType": "bool",
          "name": "",
          "type": "bool"
        }
      ],
      "payable": false,
      "stateMutability": "nonpayable",
      "type": "function"
    },
    {
      "constant": false,
      "inputs": [
        {
          "internalType": "address",
          "name": "sender",
          "type": "address"
        },
        {
          "internalType": "address",
          "name": "recipient",
          "type": "address"
        },
        {
          "internalType": "uint256",
          "name": "amount",
          "type": "uint256"
        }
      ],
      "name": "transferFrom",
      "outputs": [
        {
          "internalType": "bool",
          "name": "",
          "type": "bool"
        }
      ],
      "payable": false,
      "stateMutability": "nonpayable",
      "type": "function"
    },
    {
      "constant": false,
      "inputs": [
        {
          "internalType": "bytes32",
          "name": "c",
          "type": "bytes32"
        }
      ],
      "name": "setCiao",
      "outputs": [],
      "payable": false,
      "stateMutability": "nonpayable",
      "type": "function"
    },
    {
      "constant": false,
      "inputs": [
        {
          "internalType": "address",
          "name": "buyer",
          "type": "address"
        },
        {
          "internalType": "uint256",
          "name": "amount",
          "type": "uint256"
        }
      ],
      "name": "BuyToken",
      "outputs": [],
      "payable": false,
      "stateMutability": "nonpayable",
      "type": "function"
    },
    {
      "constant": false,
      "inputs": [
        {
          "internalType": "uint256",
          "name": "amount",
          "type": "uint256"
        }
      ],
      "name": "SellToken",
      "outputs": [],
      "payable": false,
      "stateMutability": "nonpayable",
      "type": "function"
    },
    {
      "constant": false,
      "inputs": [
        {
          "internalType": "bytes32",
          "name": "hash_e",
          "type": "bytes32"
        },
        {
          "internalType": "bytes32",
          "name": "hash_r_a",
          "type": "bytes32"
        },
        {
          "internalType": "bytes32[3]",
          "name": "hash_h",
          "type": "bytes32[3]"
        },
        {
          "internalType": "uint16",
          "name": "m_b",
          "type": "uint16"
        },
        {
          "internalType": "uint256",
          "name": "bid",
          "type": "uint256"
        }
      ],
      "name": "createEnigma",
      "outputs": [],
      "payable": false,
      "stateMutability": "nonpayable",
      "type": "function"
    },
    {
      "constant": false,
      "inputs": [
        {
          "internalType": "bytes32",
          "name": "hash_a",
          "type": "bytes32"
        },
        {
          "internalType": "address",
          "name": "enigma_creator",
          "type": "address"
        },
        {
          "internalType": "uint256",
          "name": "index",
          "type": "uint256"
        },
        {
          "internalType": "uint256",
          "name": "bid",
          "type": "uint256"
        }
      ],
      "name": "answerEnigma",
      "outputs": [],
      "payable": false,
      "stateMutability": "nonpayable",
      "type": "function"
    },
    {
      "constant": true,
      "inputs": [],
      "name": "getEnigmas",
      "outputs": [
        {
          "components": [
            {
              "internalType": "bytes32",
              "name": "hash_enigma",
              "type": "bytes32"
            },
            {
              "internalType": "bytes32",
              "name": "hash_right_answer",
              "type": "bytes32"
            },
            {
              "internalType": "bytes32[3]",
              "name": "hash_hints",
              "type": "bytes32[3]"
            },
            {
              "internalType": "uint16",
              "name": "max_bids",
              "type": "uint16"
            },
            {
              "internalType": "uint256",
              "name": "timestamp",
              "type": "uint256"
            },
            {
              "internalType": "uint256",
              "name": "jackpot",
              "type": "uint256"
            },
            {
              "internalType": "uint256",
              "name": "index",
              "type": "uint256"
            },
            {
              "internalType": "bool",
              "name": "ended",
              "type": "bool"
            }
          ],
          "internalType": "struct Token.Enigma[]",
          "name": "",
          "type": "tuple[]"
        }
      ],
      "payable": false,
      "stateMutability": "view",
      "type": "function"
    },
    {
      "constant": true,
      "inputs": [],
      "name": "getAnswers",
      "outputs": [
        {
          "components": [
            {
              "internalType": "bytes32",
              "name": "hash_answer",
              "type": "bytes32"
            },
            {
              "internalType": "address",
              "name": "enigma_creator",
              "type": "address"
            },
            {
              "internalType": "uint256",
              "name": "enigma_index",
              "type": "uint256"
            },
            {
              "internalType": "bool",
              "name": "right",
              "type": "bool"
            }
          ],
          "internalType": "struct Token.Answer[]",
          "name": "",
          "type": "tuple[]"
        }
      ],
      "payable": false,
      "stateMutability": "view",
      "type": "function"
    },
    {
      "constant": false,
      "inputs": [
        {
          "internalType": "uint256",
          "name": "index",
          "type": "uint256"
        }
      ],
      "name": "getReward",
      "outputs": [],
      "payable": false,
      "stateMutability": "nonpayable",
      "type": "function"
    }
  ],
  "bytecode": "0x6080604052633b9aca0060035562015180600460006101000a81548163ffffffff021916908363ffffffff1602179055503480156200003d57600080fd5b50336004806101000a81548173ffffffffffffffffffffffffffffffffffffffff021916908373ffffffffffffffffffffffffffffffffffffffff16021790555062000092306003546200009860201b60201c565b6200039c565b600073ffffffffffffffffffffffffffffffffffffffff168273ffffffffffffffffffffffffffffffffffffffff1614156200010b576040517f08c379a0000000000000000000000000000000000000000000000000000000008152600401620001029062000342565b60405180910390fd5b62000127816002546200023360201b620015d51790919060201c565b60028190555062000185816000808573ffffffffffffffffffffffffffffffffffffffff1673ffffffffffffffffffffffffffffffffffffffff168152602001908152602001600020546200023360201b620015d51790919060201c565b6000808473ffffffffffffffffffffffffffffffffffffffff1673ffffffffffffffffffffffffffffffffffffffff168152602001908152602001600020819055508173ffffffffffffffffffffffffffffffffffffffff16600073ffffffffffffffffffffffffffffffffffffffff167fddf252ad1be2c89b69c2b068fc378daa952ba7f163c4a11628f55a4df523b3ef8360405162000227919062000364565b60405180910390a35050565b60008082840190508381101562000281576040517f08c379a0000000000000000000000000000000000000000000000000000000008152600401620002789062000320565b60405180910390fd5b8091505092915050565b60006200029a601b8362000381565b91507f536166654d6174683a206164646974696f6e206f766572666c6f7700000000006000830152602082019050919050565b6000620002dc601f8362000381565b91507f45524332303a206d696e7420746f20746865207a65726f2061646472657373006000830152602082019050919050565b6200031a8162000392565b82525050565b600060208201905081810360008301526200033b816200028b565b9050919050565b600060208201905081810360008301526200035d81620002cd565b9050919050565b60006020820190506200037b60008301846200030f565b92915050565b600082825260208201905092915050565b6000819050919050565b61249480620003ac6000396000f3fe608060405234801561001057600080fd5b50600436106101165760003560e01c806370a08231116100a2578063a9059cbb11610071578063a9059cbb146102f3578063c793fcf914610323578063dd06b66c14610341578063dd62ed3e1461035d578063e78ba9121461038d57610116565b806370a08231146102595780638da5cb5b146102895780639d5c6108146102a7578063a457c2d7146102c357610116565b80631e94d870116100e95780631e94d870146101a357806323b872dd146101c157806339509351146101f1578063445e5b0614610221578063490754661461023d57610116565b8063095ea7b31461011b5780630caf07101461014b57806318160ddd146101695780631c4b774b14610187575b600080fd5b610135600480360361013091908101906118c7565b6103a9565b6040516101429190612061565b60405180910390f35b6101536103c7565b604051610160919061207c565b60405180910390f35b6101716103cd565b60405161017e91906121b9565b60405180910390f35b6101a1600480360361019c9190810190611a06565b6103d7565b005b6101ab61052d565b6040516101b8919061203f565b60405180910390f35b6101db60048036036101d69190810190611878565b61067c565b6040516101e89190612061565b60405180910390f35b61020b600480360361020691908101906118c7565b610755565b6040516102189190612061565b60405180910390f35b61023b60048036036102369190810190611a06565b610808565b005b6102576004803603610252919081019061192c565b6108ab565b005b610273600480360361026e9190810190611813565b610ba8565b60405161028091906121b9565b60405180910390f35b610291610bf0565b60405161029e9190612002565b60405180910390f35b6102c160048036036102bc9190810190611903565b610c15565b005b6102dd60048036036102d891908101906118c7565b610c1f565b6040516102ea9190612061565b60405180910390f35b61030d600480360361030891908101906118c7565b610cec565b60405161031a9190612061565b60405180910390f35b61032b610d0a565b604051610338919061201d565b60405180910390f35b61035b600480360361035691908101906118c7565b610e2b565b005b6103776004803603610372919081019061183c565b610e90565b60405161038491906121b9565b60405180910390f35b6103a760048036036103a2919081019061198f565b610f17565b005b60006103bd6103b661111d565b8484611125565b6001905092915050565b60055481565b6000600254905090565b6103df61162a565b600660003373ffffffffffffffffffffffffffffffffffffffff1673ffffffffffffffffffffffffffffffffffffffff168152602001908152602001600020828154811061042957fe5b90600052602060002090600a020160405180610100016040529081600082015481526020016001820154815260200160028201600380602002604051908101604052809291908260038015610493576020028201915b81548152602001906001019080831161047f575b505050505081526020016005820160009054906101000a900461ffff1661ffff1661ffff1681526020016006820154815260200160078201548152602001600882015481526020016009820160009054906101000a900460ff1615151515815250509050600015158160e00151151514156105295760018160e001901515908115158152505061052830338360a001516112f0565b5b5050565b6060600660003373ffffffffffffffffffffffffffffffffffffffff1673ffffffffffffffffffffffffffffffffffffffff168152602001908152602001600020805480602002602001604051908101604052809291908181526020016000905b8282101561067357838290600052602060002090600a020160405180610100016040529081600082015481526020016001820154815260200160028201600380602002604051908101604052809291908260038015610602576020028201915b8154815260200190600101908083116105ee575b505050505081526020016005820160009054906101000a900461ffff1661ffff1661ffff1681526020016006820154815260200160078201548152602001600882015481526020016009820160009054906101000a900460ff1615151515815250508152602001906001019061058e565b50505050905090565b60006106898484846112f0565b61074a8461069561111d565b6107458560405180606001604052806028815260200161240560289139600160008b73ffffffffffffffffffffffffffffffffffffffff1673ffffffffffffffffffffffffffffffffffffffff16815260200190815260200160002060006106fb61111d565b73ffffffffffffffffffffffffffffffffffffffff1673ffffffffffffffffffffffffffffffffffffffff1681526020019081526020016000205461157a9092919063ffffffff16565b611125565b600190509392505050565b60006107fe61076261111d565b846107f9856001600061077361111d565b73ffffffffffffffffffffffffffffffffffffffff1673ffffffffffffffffffffffffffffffffffffffff16815260200190815260200160002060008973ffffffffffffffffffffffffffffffffffffffff1673ffffffffffffffffffffffffffffffffffffffff168152602001908152602001600020546115d590919063ffffffff16565b611125565b6001905092915050565b8061081233610ba8565b1015610853576040517f08c379a000000000000000000000000000000000000000000000000000000000815260040161084a90612199565b60405180910390fd5b8061085c6103cd565b101561089d576040517f08c379a000000000000000000000000000000000000000000000000000000000815260040161089490612179565b60405180910390fd5b6108a83330836112f0565b50565b806108b533610ba8565b10156108f6576040517f08c379a00000000000000000000000000000000000000000000000000000000081526004016108ed90612119565b60405180910390fd5b6108fe611681565b8481600001818152505083816020019073ffffffffffffffffffffffffffffffffffffffff16908173ffffffffffffffffffffffffffffffffffffffff16815250508281604001818152505061095261162a565b600660008673ffffffffffffffffffffffffffffffffffffffff1673ffffffffffffffffffffffffffffffffffffffff168152602001908152602001600020848154811061099c57fe5b90600052602060002090600a020160405180610100016040529081600082015481526020016001820154815260200160028201600380602002604051908101604052809291908260038015610a06576020028201915b8154815260200190600101908083116109f2575b505050505081526020016005820160009054906101000a900461ffff1661ffff1661ffff1681526020016006820154815260200160078201548152602001600882015481526020016009820160009054906101000a900460ff16151515158152505090508060200151861415610a9b5760018160e0019015159081151581525050610a9630338360a001516112f0565b610ab7565b828160a0018181510191508181525050610ab63330856112f0565b5b600760003373ffffffffffffffffffffffffffffffffffffffff1673ffffffffffffffffffffffffffffffffffffffff16815260200190815260200160002082908060018154018082558091505090600182039060005260206000209060040201600090919290919091506000820151816000015560208201518160010160006101000a81548173ffffffffffffffffffffffffffffffffffffffff021916908373ffffffffffffffffffffffffffffffffffffffff1602179055506040820151816002015560608201518160030160006101000a81548160ff021916908315150217905550505050505050505050565b60008060008373ffffffffffffffffffffffffffffffffffffffff1673ffffffffffffffffffffffffffffffffffffffff168152602001908152602001600020549050919050565b6004809054906101000a900473ffffffffffffffffffffffffffffffffffffffff1681565b8060058190555050565b6000610ce2610c2c61111d565b84610cdd8560405180606001604052806025815260200161242d6025913960016000610c5661111d565b73ffffffffffffffffffffffffffffffffffffffff1673ffffffffffffffffffffffffffffffffffffffff16815260200190815260200160002060008a73ffffffffffffffffffffffffffffffffffffffff1673ffffffffffffffffffffffffffffffffffffffff1681526020019081526020016000205461157a9092919063ffffffff16565b611125565b6001905092915050565b6000610d00610cf961111d565b84846112f0565b6001905092915050565b6060600760003373ffffffffffffffffffffffffffffffffffffffff1673ffffffffffffffffffffffffffffffffffffffff168152602001908152602001600020805480602002602001604051908101604052809291908181526020016000905b82821015610e225783829060005260206000209060040201604051806080016040529081600082015481526020016001820160009054906101000a900473ffffffffffffffffffffffffffffffffffffffff1673ffffffffffffffffffffffffffffffffffffffff1673ffffffffffffffffffffffffffffffffffffffff168152602001600282015481526020016003820160009054906101000a900460ff16151515158152505081526020019060010190610d6b565b50505050905090565b6004809054906101000a900473ffffffffffffffffffffffffffffffffffffffff1673ffffffffffffffffffffffffffffffffffffffff163373ffffffffffffffffffffffffffffffffffffffff1614610e8157fe5b610e8c3083836112f0565b5050565b6000600160008473ffffffffffffffffffffffffffffffffffffffff1673ffffffffffffffffffffffffffffffffffffffff16815260200190815260200160002060008373ffffffffffffffffffffffffffffffffffffffff1673ffffffffffffffffffffffffffffffffffffffff16815260200190815260200160002054905092915050565b80610f2133610ba8565b1015610f62576040517f08c379a0000000000000000000000000000000000000000000000000000000008152600401610f5990612119565b60405180910390fd5b610f6d3330836112f0565b610f7561162a565b858160000181815250508481602001818152505083816040018190525082816060019061ffff16908161ffff168152505042816080018181525050818160a001818152505060008160e0019015159081151581525050600660003373ffffffffffffffffffffffffffffffffffffffff1673ffffffffffffffffffffffffffffffffffffffff168152602001908152602001600020819080600181540180825580915050906001820390600052602060002090600a02016000909192909190915060008201518160000155602082015181600101556040820151816002019060036110619291906116c4565b5060608201518160050160006101000a81548161ffff021916908361ffff1602179055506080820151816006015560a0820151816007015560c0820151816008015560e08201518160090160006101000a81548160ff0219169083151502179055505050506001600660003373ffffffffffffffffffffffffffffffffffffffff1673ffffffffffffffffffffffffffffffffffffffff16815260200190815260200160002080549050038160c0018181525050505050505050565b600033905090565b600073ffffffffffffffffffffffffffffffffffffffff168373ffffffffffffffffffffffffffffffffffffffff161415611195576040517f08c379a000000000000000000000000000000000000000000000000000000000815260040161118c90612159565b60405180910390fd5b600073ffffffffffffffffffffffffffffffffffffffff168273ffffffffffffffffffffffffffffffffffffffff161415611205576040517f08c379a00000000000000000000000000000000000000000000000000000000081526004016111fc906120d9565b60405180910390fd5b80600160008573ffffffffffffffffffffffffffffffffffffffff1673ffffffffffffffffffffffffffffffffffffffff16815260200190815260200160002060008473ffffffffffffffffffffffffffffffffffffffff1673ffffffffffffffffffffffffffffffffffffffff168152602001908152602001600020819055508173ffffffffffffffffffffffffffffffffffffffff168373ffffffffffffffffffffffffffffffffffffffff167f8c5be1e5ebec7d5bd14f71427d1e84f3dd0314c0f7b2291e5b200ac8c7c3b925836040516112e391906121b9565b60405180910390a3505050565b600073ffffffffffffffffffffffffffffffffffffffff168373ffffffffffffffffffffffffffffffffffffffff161415611360576040517f08c379a000000000000000000000000000000000000000000000000000000000815260040161135790612139565b60405180910390fd5b600073ffffffffffffffffffffffffffffffffffffffff168273ffffffffffffffffffffffffffffffffffffffff1614156113d0576040517f08c379a00000000000000000000000000000000000000000000000000000000081526004016113c7906120b9565b60405180910390fd5b61143b816040518060600160405280602681526020016123df602691396000808773ffffffffffffffffffffffffffffffffffffffff1673ffffffffffffffffffffffffffffffffffffffff1681526020019081526020016000205461157a9092919063ffffffff16565b6000808573ffffffffffffffffffffffffffffffffffffffff1673ffffffffffffffffffffffffffffffffffffffff168152602001908152602001600020819055506114ce816000808573ffffffffffffffffffffffffffffffffffffffff1673ffffffffffffffffffffffffffffffffffffffff168152602001908152602001600020546115d590919063ffffffff16565b6000808473ffffffffffffffffffffffffffffffffffffffff1673ffffffffffffffffffffffffffffffffffffffff168152602001908152602001600020819055508173ffffffffffffffffffffffffffffffffffffffff168373ffffffffffffffffffffffffffffffffffffffff167fddf252ad1be2c89b69c2b068fc378daa952ba7f163c4a11628f55a4df523b3ef8360405161156d91906121b9565b60405180910390a3505050565b60008383111582906115c2576040517f08c379a00000000000000000000000000000000000000000000000000000000081526004016115b99190612097565b60405180910390fd5b5060008385039050809150509392505050565b600080828401905083811015611620576040517f08c379a0000000000000000000000000000000000000000000000000000000008152600401611617906120f9565b60405180910390fd5b8091505092915050565b6040518061010001604052806000801916815260200160008019168152602001611652611704565b8152602001600061ffff1681526020016000815260200160008152602001600081526020016000151581525090565b604051806080016040528060008019168152602001600073ffffffffffffffffffffffffffffffffffffffff168152602001600081526020016000151581525090565b82600381019282156116f3579160200282015b828111156116f25782518255916020019190600101906116d7565b5b5090506117009190611726565b5090565b6040518060600160405280600390602082028038833980820191505090505090565b61174891905b8082111561174457600081600090555060010161172c565b5090565b90565b60008135905061175a81612382565b92915050565b600082601f83011261177157600080fd5b600361178461177f82612201565b6121d4565b9150818385602084028201111561179a57600080fd5b60005b838110156117ca57816117b088826117d4565b84526020840193506020830192505060018101905061179d565b5050505092915050565b6000813590506117e381612399565b92915050565b6000813590506117f8816123b0565b92915050565b60008135905061180d816123c7565b92915050565b60006020828403121561182557600080fd5b60006118338482850161174b565b91505092915050565b6000806040838503121561184f57600080fd5b600061185d8582860161174b565b925050602061186e8582860161174b565b9150509250929050565b60008060006060848603121561188d57600080fd5b600061189b8682870161174b565b93505060206118ac8682870161174b565b92505060406118bd868287016117fe565b9150509250925092565b600080604083850312156118da57600080fd5b60006118e88582860161174b565b92505060206118f9858286016117fe565b9150509250929050565b60006020828403121561191557600080fd5b6000611923848285016117d4565b91505092915050565b6000806000806080858703121561194257600080fd5b6000611950878288016117d4565b94505060206119618782880161174b565b9350506040611972878288016117fe565b9250506060611983878288016117fe565b91505092959194509250565b600080600080600060e086880312156119a757600080fd5b60006119b5888289016117d4565b95505060206119c6888289016117d4565b94505060406119d788828901611760565b93505060a06119e8888289016117e9565b92505060c06119f9888289016117fe565b9150509295509295909350565b600060208284031215611a1857600080fd5b6000611a26848285016117fe565b91505092915050565b6000611a3b8383611bc7565b60208301905092915050565b6000611a538383611edc565b60808301905092915050565b6000611a6b8383611f31565b6101408301905092915050565b611a81816122de565b82525050565b611a90816122de565b82525050565b611a9f8161224d565b611aa981846122a0565b9250611ab482612223565b8060005b83811015611ae5578151611acc8782611a2f565b9650611ad783612279565b925050600181019050611ab8565b505050505050565b6000611af882612258565b611b0281856122ab565b9350611b0d8361222d565b8060005b83811015611b3e578151611b258882611a47565b9750611b3083612286565b925050600181019050611b11565b5085935050505092915050565b6000611b5682612263565b611b6081856122bc565b9350611b6b8361223d565b8060005b83811015611b9c578151611b838882611a5f565b9750611b8e83612293565b925050600181019050611b6f565b5085935050505092915050565b611bb2816122f0565b82525050565b611bc1816122f0565b82525050565b611bd0816122fc565b82525050565b611bdf816122fc565b82525050565b6000611bf08261226e565b611bfa81856122cd565b9350611c0a81856020860161233e565b611c1381612371565b840191505092915050565b6000611c2b6023836122cd565b91507f45524332303a207472616e7366657220746f20746865207a65726f206164647260008301527f65737300000000000000000000000000000000000000000000000000000000006020830152604082019050919050565b6000611c916022836122cd565b91507f45524332303a20617070726f766520746f20746865207a65726f20616464726560008301527f73730000000000000000000000000000000000000000000000000000000000006020830152604082019050919050565b6000611cf7601b836122cd565b91507f536166654d6174683a206164646974696f6e206f766572666c6f7700000000006000830152602082019050919050565b6000611d37602b836122cd565b91507f596f7520686176656e277420656e6f75676820746f6b656e20746f20706c616360008301527f6520796f7572206269642e0000000000000000000000000000000000000000006020830152604082019050919050565b6000611d9d6025836122cd565b91507f45524332303a207472616e736665722066726f6d20746865207a65726f20616460008301527f64726573730000000000000000000000000000000000000000000000000000006020830152604082019050919050565b6000611e036024836122cd565b91507f45524332303a20617070726f76652066726f6d20746865207a65726f2061646460008301527f72657373000000000000000000000000000000000000000000000000000000006020830152604082019050919050565b6000611e696011836122cd565b91507f4e6f7420656e6f75676820746f6b656e730000000000000000000000000000006000830152602082019050919050565b6000611ea96011836122cd565b91507f596f7520686176656e277420746f6b656e0000000000000000000000000000006000830152602082019050919050565b608082016000820151611ef26000850182611bc7565b506020820151611f056020850182611a78565b506040820151611f186040850182611fe4565b506060820151611f2b6060850182611ba9565b50505050565b61014082016000820151611f486000850182611bc7565b506020820151611f5b6020850182611bc7565b506040820151611f6e6040850182611a96565b506060820151611f8160a0850182611fd5565b506080820151611f9460c0850182611fe4565b5060a0820151611fa760e0850182611fe4565b5060c0820151611fbb610100850182611fe4565b5060e0820151611fcf610120850182611ba9565b50505050565b611fde81612306565b82525050565b611fed81612334565b82525050565b611ffc81612334565b82525050565b60006020820190506120176000830184611a87565b92915050565b600060208201905081810360008301526120378184611aed565b905092915050565b600060208201905081810360008301526120598184611b4b565b905092915050565b60006020820190506120766000830184611bb8565b92915050565b60006020820190506120916000830184611bd6565b92915050565b600060208201905081810360008301526120b18184611be5565b905092915050565b600060208201905081810360008301526120d281611c1e565b9050919050565b600060208201905081810360008301526120f281611c84565b9050919050565b6000602082019050818103600083015261211281611cea565b9050919050565b6000602082019050818103600083015261213281611d2a565b9050919050565b6000602082019050818103600083015261215281611d90565b9050919050565b6000602082019050818103600083015261217281611df6565b9050919050565b6000602082019050818103600083015261219281611e5c565b9050919050565b600060208201905081810360008301526121b281611e9c565b9050919050565b60006020820190506121ce6000830184611ff3565b92915050565b6000604051905081810181811067ffffffffffffffff821117156121f757600080fd5b8060405250919050565b600067ffffffffffffffff82111561221857600080fd5b602082029050919050565b6000819050919050565b6000819050602082019050919050565b6000819050602082019050919050565b600060039050919050565b600081519050919050565b600081519050919050565b600081519050919050565b6000602082019050919050565b6000602082019050919050565b6000602082019050919050565b600081905092915050565b600082825260208201905092915050565b600082825260208201905092915050565b600082825260208201905092915050565b60006122e982612314565b9050919050565b60008115159050919050565b6000819050919050565b600061ffff82169050919050565b600073ffffffffffffffffffffffffffffffffffffffff82169050919050565b6000819050919050565b60005b8381101561235c578082015181840152602081019050612341565b8381111561236b576000848401525b50505050565b6000601f19601f8301169050919050565b61238b816122de565b811461239657600080fd5b50565b6123a2816122fc565b81146123ad57600080fd5b50565b6123b981612306565b81146123c457600080fd5b50565b6123d081612334565b81146123db57600080fd5b5056fe45524332303a207472616e7366657220616d6f756e7420657863656564732062616c616e636545524332303a207472616e7366657220616d6f756e74206578636565647320616c6c6f77616e636545524332303a2064656372656173656420616c6c6f77616e63652062656c6f77207a65726fa365627a7a72315820b049ac89452449aa8fb0bd7954c4aee447357a8400d2930f0e46b25edfacd1056c6578706572696d656e74616cf564736f6c634300050c0040",
  "source": "pragma solidity ^0.5.0;\npragma experimental ABIEncoderV2;\n\nimport \"../node_modules/@openzeppelin/contracts/token/ERC20/ERC20.sol\";\n\ncontract Token is ERC20 {\n\n    uint private MAX_TOKEN = 1000000000; //1 000 000 000\n    uint32 private DAY_MS = 86400;\n    address public owner;\n\n    //\n\n    bytes32 public ciao;\n\n    function setCiao(bytes32 c) public{\n        ciao = c;\n    }\n\n    //\n\n    struct Enigma{\n        bytes32 hash_enigma;\n        bytes32 hash_right_answer;\n        bytes32[3] hash_hints;\n        uint16 max_bids;\n        uint timestamp;\n        uint jackpot;\n        uint index;\n        bool ended;\n\n    }\n    struct Answer{\n        bytes32 hash_answer;\n        address enigma_creator;\n        uint enigma_index;\n        bool right;\n    }\n    \n    mapping(address => Enigma[]) private creators;\n    mapping(address => Answer[]) private players;\n\n    constructor() public{\n        owner = msg.sender;\n        _mint(address(this), MAX_TOKEN);\n    }\n\n    function BuyToken(address buyer, uint256 amount) public{\n        assert(msg.sender == owner);\n        _transfer(address(this), buyer, amount);\n    }\n\n    function SellToken(uint256 amount) public {\n        require(balanceOf(msg.sender) >= amount, \"You haven't token\");\n        require(totalSupply() >= amount, \"Not enough tokens\");\n        _transfer(msg.sender, address(this), amount);\n    }\n\n    function createEnigma(bytes32 hash_e, bytes32 hash_r_a, bytes32[3] memory hash_h, uint16 m_b, uint256 bid) public{\n        require(balanceOf(msg.sender) >= bid, \"You haven't enough token to place your bid.\");\n        _transfer(msg.sender, address(this), bid);\n        Enigma memory e;\n\n        e.hash_enigma = hash_e;\n        e.hash_right_answer = hash_r_a;\n        e.hash_hints = hash_h;\n        e.max_bids = m_b;\n        e.timestamp = block.timestamp;\n        e.jackpot = bid;\n        e.ended = false;\n        creators[msg.sender].push(e);\n\n        e.index = (creators[msg.sender].length)-1;\n    }\n    function answerEnigma(bytes32 hash_a, address enigma_creator, uint index, uint256 bid) public{\n        require(balanceOf(msg.sender) >= bid, \"You haven't enough token to place your bid.\");\n        Answer memory a;\n\n        a.hash_answer = hash_a;\n        a.enigma_creator = enigma_creator;\n        a.enigma_index = index;\n\n        Enigma memory e = creators[enigma_creator][index];\n        if(hash_a == e.hash_right_answer){\n            e.ended = true;\n            _transfer(address(this), msg.sender, e.jackpot);\n        }\n        else{\n            e.jackpot += bid;\n            _transfer(msg.sender, address(this), bid);\n        }\n\n        players[msg.sender].push(a);\n    }\n\n    function getEnigmas() public view returns(Enigma[] memory){\n        return creators[msg.sender];\n    }\n    function getAnswers() public view returns(Answer[] memory){\n        return players[msg.sender];\n    }\n\n    function getReward(uint index) public{\n        Enigma memory e = creators[msg.sender][index];\n        if(e.ended == false){  // TODO: timestamp check and add wait time\n            e.ended = true;\n            _transfer(address(this), msg.sender, e.jackpot);\n        }\n    }\n\n}",
  "sourcePath": "/home/christian/Documenti/Progetti/indovinelli-ethereum/Contract/contracts/Token.sol",
  "compiler": {
    "name": "solc",
    "version": "0.5.12+commit.7709ece9.Emscripten.clang"
  },
  "schemaVersion": "3.0.19",
  "updatedAt": "2019-11-28T13:51:01.193Z",
  "networkType": "ethereum",
  "devdoc": {
    "methods": {
      "allowance(address,address)": {
        "details": "See {IERC20-allowance}."
      },
      "approve(address,uint256)": {
        "details": "See {IERC20-approve}.     * Requirements:     * - `spender` cannot be the zero address."
      },
      "balanceOf(address)": {
        "details": "See {IERC20-balanceOf}."
      },
      "decreaseAllowance(address,uint256)": {
        "details": "Atomically decreases the allowance granted to `spender` by the caller.     * This is an alternative to {approve} that can be used as a mitigation for problems described in {IERC20-approve}.     * Emits an {Approval} event indicating the updated allowance.     * Requirements:     * - `spender` cannot be the zero address. - `spender` must have allowance for the caller of at least `subtractedValue`."
      },
      "increaseAllowance(address,uint256)": {
        "details": "Atomically increases the allowance granted to `spender` by the caller.     * This is an alternative to {approve} that can be used as a mitigation for problems described in {IERC20-approve}.     * Emits an {Approval} event indicating the updated allowance.     * Requirements:     * - `spender` cannot be the zero address."
      },
      "totalSupply()": {
        "details": "See {IERC20-totalSupply}."
      },
      "transfer(address,uint256)": {
        "details": "See {IERC20-transfer}.     * Requirements:     * - `recipient` cannot be the zero address. - the caller must have a balance of at least `amount`."
      },
      "transferFrom(address,address,uint256)": {
        "details": "See {IERC20-transferFrom}.     * Emits an {Approval} event indicating the updated allowance. This is not required by the EIP. See the note at the beginning of {ERC20};     * Requirements: - `sender` and `recipient` cannot be the zero address. - `sender` must have a balance of at least `amount`. - the caller must have allowance for `sender`'s tokens of at least `amount`."
      }
    }
  },
  "userdoc": {
    "methods": {}
  }
}